{
  "_format": "hh-sol-artifact-1",
  "contractName": "Bank",
  "sourceName": "contracts/Bank.sol",
  "abi": [
    {
      "anonymous": false,
      "inputs": [
        {
          "indexed": true,
          "internalType": "address",
          "name": "from",
          "type": "address"
        },
        {
          "indexed": true,
          "internalType": "uint256",
          "name": "amountSent",
          "type": "uint256"
        }
      ],
      "name": "Deposit",
      "type": "event"
    },
    {
      "anonymous": false,
      "inputs": [
        {
          "indexed": false,
          "internalType": "address",
          "name": "from",
          "type": "address"
        },
        {
          "indexed": false,
          "internalType": "uint256",
          "name": "withrawnAmount",
          "type": "uint256"
        },
        {
          "indexed": false,
          "internalType": "uint256",
          "name": "amountLeft",
          "type": "uint256"
        }
      ],
      "name": "Withdraw",
      "type": "event"
    },
    {
      "inputs": [],
      "name": "deposit",
      "outputs": [],
      "stateMutability": "payable",
      "type": "function"
    },
    {
      "inputs": [],
      "name": "getCounter",
      "outputs": [
        {
          "internalType": "uint256",
          "name": "",
          "type": "uint256"
        }
      ],
      "stateMutability": "view",
      "type": "function"
    },
    {
      "inputs": [
        {
          "internalType": "address",
          "name": "_user",
          "type": "address"
        }
      ],
      "name": "getCurrentUSerBalance",
      "outputs": [
        {
          "internalType": "uint256",
          "name": "",
          "type": "uint256"
        }
      ],
      "stateMutability": "view",
      "type": "function"
    },
    {
      "inputs": [
        {
          "internalType": "address",
          "name": "user",
          "type": "address"
        }
      ],
      "name": "userBalance",
      "outputs": [
        {
          "internalType": "uint256",
          "name": "balance",
          "type": "uint256"
        }
      ],
      "stateMutability": "view",
      "type": "function"
    },
    {
      "inputs": [
        {
          "internalType": "uint256",
          "name": "amount",
          "type": "uint256"
        }
      ],
      "name": "withdraw",
      "outputs": [],
      "stateMutability": "payable",
      "type": "function"
    }
  ],
  "bytecode": "0x608060405234801561001057600080fd5b50610701806100206000396000f3fe60806040526004361061004a5760003560e01c80630103c92b1461004f5780632e1a7d4d1461008c5780638ada066e146100a8578063d0e30db0146100d3578063f45606f3146100dd575b600080fd5b34801561005b57600080fd5b5061007660048036038101906100719190610429565b61011a565b604051610083919061046f565b60405180910390f35b6100a660048036038101906100a191906104b6565b610132565b005b3480156100b457600080fd5b506100bd610273565b6040516100ca919061046f565b60405180910390f35b6100db61027c565b005b3480156100e957600080fd5b5061010460048036038101906100ff9190610429565b61037d565b604051610111919061046f565b60405180910390f35b60016020528060005260406000206000915090505481565b80600160003373ffffffffffffffffffffffffffffffffffffffff1673ffffffffffffffffffffffffffffffffffffffff16815260200190815260200160002060008282546101819190610512565b9250508190555060003373ffffffffffffffffffffffffffffffffffffffff16826040516101ae90610577565b60006040518083038185875af1925050503d80600081146101eb576040519150601f19603f3d011682016040523d82523d6000602084013e6101f0565b606091505b5050905080610234576040517f08c379a000000000000000000000000000000000000000000000000000000000815260040161022b906105e9565b60405180910390fd5b7ff279e6a1f5e320cca91135676d9cb6e44ca8a08c0b88342bcdb1144f6511b56833834760405161026793929190610618565b60405180910390a15050565b60008054905090565b6000600160003373ffffffffffffffffffffffffffffffffffffffff1673ffffffffffffffffffffffffffffffffffffffff168152602001908152602001600020549050600081036102e0576000808154809291906102da9061064f565b91905055505b34600160003373ffffffffffffffffffffffffffffffffffffffff1673ffffffffffffffffffffffffffffffffffffffff168152602001908152602001600020600082825461032f9190610697565b92505081905550343373ffffffffffffffffffffffffffffffffffffffff167fe1fffcc4923d04b559f4d29a8bfc6cda04eb5b0d3c460751c2402c5c5cc9109c60405160405180910390a350565b6000600160008373ffffffffffffffffffffffffffffffffffffffff1673ffffffffffffffffffffffffffffffffffffffff168152602001908152602001600020549050919050565b600080fd5b600073ffffffffffffffffffffffffffffffffffffffff82169050919050565b60006103f6826103cb565b9050919050565b610406816103eb565b811461041157600080fd5b50565b600081359050610423816103fd565b92915050565b60006020828403121561043f5761043e6103c6565b5b600061044d84828501610414565b91505092915050565b6000819050919050565b61046981610456565b82525050565b60006020820190506104846000830184610460565b92915050565b61049381610456565b811461049e57600080fd5b50565b6000813590506104b08161048a565b92915050565b6000602082840312156104cc576104cb6103c6565b5b60006104da848285016104a1565b91505092915050565b7f4e487b7100000000000000000000000000000000000000000000000000000000600052601160045260246000fd5b600061051d82610456565b915061052883610456565b92508282039050818111156105405761053f6104e3565b5b92915050565b600081905092915050565b50565b6000610561600083610546565b915061056c82610551565b600082019050919050565b600061058282610554565b9150819050919050565b600082825260208201905092915050565b7f747261696e73666572206661696c656400000000000000000000000000000000600082015250565b60006105d360108361058c565b91506105de8261059d565b602082019050919050565b60006020820190508181036000830152610602816105c6565b9050919050565b610612816103eb565b82525050565b600060608201905061062d6000830186610609565b61063a6020830185610460565b6106476040830184610460565b949350505050565b600061065a82610456565b91507fffffffffffffffffffffffffffffffffffffffffffffffffffffffffffffffff820361068c5761068b6104e3565b5b600182019050919050565b60006106a282610456565b91506106ad83610456565b92508282019050808211156106c5576106c46104e3565b5b9291505056fea2646970667358221220314c4564c773c578d9c90b1fd273741b2e573d9da455d265d71df5069645b88c64736f6c63430008180033",
  "linkReferences": {},
  "deployedLinkReferences": {}
}