{
  "_format": "hh-sol-artifact-1",
  "contractName": "Token",
  "sourceName": "contracts/Token.sol",
  "abi": [
    {
      "inputs": [
        {
          "internalType": "address",
          "name": "_owner",
          "type": "address"
        },
        {
          "internalType": "address",
          "name": "_spender",
          "type": "address"
        }
      ],
      "name": "allowance",
      "outputs": [
        {
          "internalType": "uint256",
          "name": "remaining",
          "type": "uint256"
        }
      ],
      "stateMutability": "view",
      "type": "function"
    },
    {
      "inputs": [
        {
          "internalType": "address",
          "name": "user",
          "type": "address"
        },
        {
          "internalType": "address",
          "name": "contracts",
          "type": "address"
        }
      ],
      "name": "allowances",
      "outputs": [
        {
          "internalType": "uint256",
          "name": "amount",
          "type": "uint256"
        }
      ],
      "stateMutability": "view",
      "type": "function"
    },
    {
      "inputs": [
        {
          "internalType": "address",
          "name": "_spender",
          "type": "address"
        },
        {
          "internalType": "uint256",
          "name": "_value",
          "type": "uint256"
        }
      ],
      "name": "approve",
      "outputs": [
        {
          "internalType": "bool",
          "name": "success",
          "type": "bool"
        }
      ],
      "stateMutability": "nonpayable",
      "type": "function"
    },
    {
      "inputs": [
        {
          "internalType": "address",
          "name": "_owner",
          "type": "address"
        }
      ],
      "name": "balanceOf",
      "outputs": [
        {
          "internalType": "uint256",
          "name": "balance",
          "type": "uint256"
        }
      ],
      "stateMutability": "view",
      "type": "function"
    },
    {
      "inputs": [
        {
          "internalType": "address",
          "name": "user",
          "type": "address"
        }
      ],
      "name": "balances",
      "outputs": [
        {
          "internalType": "uint256",
          "name": "amount",
          "type": "uint256"
        }
      ],
      "stateMutability": "view",
      "type": "function"
    },
    {
      "inputs": [],
      "name": "decimals",
      "outputs": [
        {
          "internalType": "uint8",
          "name": "",
          "type": "uint8"
        }
      ],
      "stateMutability": "view",
      "type": "function"
    },
    {
      "inputs": [],
      "name": "name",
      "outputs": [
        {
          "internalType": "string",
          "name": "",
          "type": "string"
        }
      ],
      "stateMutability": "view",
      "type": "function"
    },
    {
      "inputs": [],
      "name": "symbol",
      "outputs": [
        {
          "internalType": "string",
          "name": "",
          "type": "string"
        }
      ],
      "stateMutability": "view",
      "type": "function"
    },
    {
      "inputs": [],
      "name": "tokenDecimals",
      "outputs": [
        {
          "internalType": "uint8",
          "name": "",
          "type": "uint8"
        }
      ],
      "stateMutability": "view",
      "type": "function"
    },
    {
      "inputs": [],
      "name": "tokenName",
      "outputs": [
        {
          "internalType": "string",
          "name": "",
          "type": "string"
        }
      ],
      "stateMutability": "view",
      "type": "function"
    },
    {
      "inputs": [],
      "name": "tokenSymbol",
      "outputs": [
        {
          "internalType": "string",
          "name": "",
          "type": "string"
        }
      ],
      "stateMutability": "view",
      "type": "function"
    },
    {
      "inputs": [],
      "name": "tokenTotalSupply",
      "outputs": [
        {
          "internalType": "uint256",
          "name": "",
          "type": "uint256"
        }
      ],
      "stateMutability": "view",
      "type": "function"
    },
    {
      "inputs": [],
      "name": "totalSupply",
      "outputs": [
        {
          "internalType": "uint256",
          "name": "",
          "type": "uint256"
        }
      ],
      "stateMutability": "view",
      "type": "function"
    },
    {
      "inputs": [
        {
          "internalType": "address",
          "name": "_to",
          "type": "address"
        },
        {
          "internalType": "uint256",
          "name": "_value",
          "type": "uint256"
        }
      ],
      "name": "transfer",
      "outputs": [
        {
          "internalType": "bool",
          "name": "success",
          "type": "bool"
        }
      ],
      "stateMutability": "nonpayable",
      "type": "function"
    },
    {
      "inputs": [
        {
          "internalType": "address",
          "name": "_from",
          "type": "address"
        },
        {
          "internalType": "address",
          "name": "_to",
          "type": "address"
        },
        {
          "internalType": "uint256",
          "name": "_value",
          "type": "uint256"
        }
      ],
      "name": "transferFrom",
      "outputs": [
        {
          "internalType": "bool",
          "name": "success",
          "type": "bool"
        }
      ],
      "stateMutability": "nonpayable",
      "type": "function"
    }
  ],
  "bytecode": "0x60806040526040518060400160405280600581526020017f4e75706174000000000000000000000000000000000000000000000000000000815250600090816200004a919062000344565b506040518060400160405280600381526020017f4e505400000000000000000000000000000000000000000000000000000000008152506001908162000091919062000344565b506301312d006002556012600360006101000a81548160ff021916908360ff160217905550348015620000c357600080fd5b506200042b565b600081519050919050565b7f4e487b7100000000000000000000000000000000000000000000000000000000600052604160045260246000fd5b7f4e487b7100000000000000000000000000000000000000000000000000000000600052602260045260246000fd5b600060028204905060018216806200014c57607f821691505b60208210810362000162576200016162000104565b5b50919050565b60008190508160005260206000209050919050565b60006020601f8301049050919050565b600082821b905092915050565b600060088302620001cc7fffffffffffffffffffffffffffffffffffffffffffffffffffffffffffffffff826200018d565b620001d886836200018d565b95508019841693508086168417925050509392505050565b6000819050919050565b6000819050919050565b6000620002256200021f6200021984620001f0565b620001fa565b620001f0565b9050919050565b6000819050919050565b620002418362000204565b6200025962000250826200022c565b8484546200019a565b825550505050565b600090565b6200027062000261565b6200027d81848462000236565b505050565b5b81811015620002a5576200029960008262000266565b60018101905062000283565b5050565b601f821115620002f457620002be8162000168565b620002c9846200017d565b81016020851015620002d9578190505b620002f1620002e8856200017d565b83018262000282565b50505b505050565b600082821c905092915050565b60006200031960001984600802620002f9565b1980831691505092915050565b600062000334838362000306565b9150826002028217905092915050565b6200034f82620000ca565b67ffffffffffffffff8111156200036b576200036a620000d5565b5b62000377825462000133565b62000384828285620002a9565b600060209050601f831160018114620003bc5760008415620003a7578287015190505b620003b3858262000326565b86555062000423565b601f198416620003cc8662000168565b60005b82811015620003f657848901518255600182019150602085019450602081019050620003cf565b8683101562000416578489015162000412601f89168262000306565b8355505b6001600288020188555050505b505050505050565b610d73806200043b6000396000f3fe608060405234801561001057600080fd5b50600436106100f55760003560e01c806355b6ed5c1161009757806395d89b411161006657806395d89b411461029e578063a9059cbb146102bc578063dd62ed3e146102ec578063f7abab9e1461031c576100f5565b806355b6ed5c146102025780636c02a9311461023257806370a08231146102505780637b61c32014610280576100f5565b806323b872dd116100d357806323b872dd1461016657806327e235e314610196578063313ce567146101c65780633b97e856146101e4576100f5565b806306fdde03146100fa578063095ea7b31461011857806318160ddd14610148575b600080fd5b61010261033a565b60405161010f91906109f4565b60405180910390f35b610132600480360381019061012d9190610aaf565b6103cc565b60405161013f9190610b0a565b60405180910390f35b61015061046b565b60405161015d9190610b34565b60405180910390f35b610180600480360381019061017b9190610b4f565b610475565b60405161018d9190610b0a565b60405180910390f35b6101b060048036038101906101ab9190610ba2565b61052e565b6040516101bd9190610b34565b60405180910390f35b6101ce610546565b6040516101db9190610beb565b60405180910390f35b6101ec61055d565b6040516101f99190610beb565b60405180910390f35b61021c60048036038101906102179190610c06565b610570565b6040516102299190610b34565b60405180910390f35b61023a610595565b60405161024791906109f4565b60405180910390f35b61026a60048036038101906102659190610ba2565b610623565b6040516102779190610b34565b60405180910390f35b61028861066c565b60405161029591906109f4565b60405180910390f35b6102a66106fa565b6040516102b391906109f4565b60405180910390f35b6102d660048036038101906102d19190610aaf565b61078c565b6040516102e39190610b0a565b60405180910390f35b61030660048036038101906103019190610c06565b6108d7565b6040516103139190610b34565b60405180910390f35b61032461095e565b6040516103319190610b34565b60405180910390f35b60606000805461034990610c75565b80601f016020809104026020016040519081016040528092919081815260200182805461037590610c75565b80156103c25780601f10610397576101008083540402835291602001916103c2565b820191906000526020600020905b8154815290600101906020018083116103a557829003601f168201915b5050505050905090565b600081600560003373ffffffffffffffffffffffffffffffffffffffff1673ffffffffffffffffffffffffffffffffffffffff16815260200190815260200160002060008573ffffffffffffffffffffffffffffffffffffffff1673ffffffffffffffffffffffffffffffffffffffff168152602001908152602001600020600082825461045a9190610cd5565b925050819055506001905092915050565b6000600254905090565b600081600460008673ffffffffffffffffffffffffffffffffffffffff1673ffffffffffffffffffffffffffffffffffffffff16815260200190815260200160002060008282546104c69190610cd5565b9250508190555081600460008573ffffffffffffffffffffffffffffffffffffffff1673ffffffffffffffffffffffffffffffffffffffff168152602001908152602001600020600082825461051c9190610cd5565b92505081905550600190509392505050565b60046020528060005260406000206000915090505481565b6000600360009054906101000a900460ff16905090565b600360009054906101000a900460ff1681565b6005602052816000526040600020602052806000526040600020600091509150505481565b600080546105a290610c75565b80601f01602080910402602001604051908101604052809291908181526020018280546105ce90610c75565b801561061b5780601f106105f05761010080835404028352916020019161061b565b820191906000526020600020905b8154815290600101906020018083116105fe57829003601f168201915b505050505081565b6000600460008373ffffffffffffffffffffffffffffffffffffffff1673ffffffffffffffffffffffffffffffffffffffff168152602001908152602001600020549050919050565b6001805461067990610c75565b80601f01602080910402602001604051908101604052809291908181526020018280546106a590610c75565b80156106f25780601f106106c7576101008083540402835291602001916106f2565b820191906000526020600020905b8154815290600101906020018083116106d557829003601f168201915b505050505081565b60606001805461070990610c75565b80601f016020809104026020016040519081016040528092919081815260200182805461073590610c75565b80156107825780601f1061075757610100808354040283529160200191610782565b820191906000526020600020905b81548152906001019060200180831161076557829003601f168201915b5050505050905090565b600081600460003373ffffffffffffffffffffffffffffffffffffffff1673ffffffffffffffffffffffffffffffffffffffff16815260200190815260200160002060008282546107dd9190610d09565b9250508190555081600460008573ffffffffffffffffffffffffffffffffffffffff1673ffffffffffffffffffffffffffffffffffffffff16815260200190815260200160002060008282546108339190610cd5565b9250508190555081600560003373ffffffffffffffffffffffffffffffffffffffff1673ffffffffffffffffffffffffffffffffffffffff16815260200190815260200160002060008573ffffffffffffffffffffffffffffffffffffffff1673ffffffffffffffffffffffffffffffffffffffff16815260200190815260200160002060008282546108c69190610d09565b925050819055506001905092915050565b6000600560008473ffffffffffffffffffffffffffffffffffffffff1673ffffffffffffffffffffffffffffffffffffffff16815260200190815260200160002060008373ffffffffffffffffffffffffffffffffffffffff1673ffffffffffffffffffffffffffffffffffffffff16815260200190815260200160002054905092915050565b60025481565b600081519050919050565b600082825260208201905092915050565b60005b8381101561099e578082015181840152602081019050610983565b60008484015250505050565b6000601f19601f8301169050919050565b60006109c682610964565b6109d0818561096f565b93506109e0818560208601610980565b6109e9816109aa565b840191505092915050565b60006020820190508181036000830152610a0e81846109bb565b905092915050565b600080fd5b600073ffffffffffffffffffffffffffffffffffffffff82169050919050565b6000610a4682610a1b565b9050919050565b610a5681610a3b565b8114610a6157600080fd5b50565b600081359050610a7381610a4d565b92915050565b6000819050919050565b610a8c81610a79565b8114610a9757600080fd5b50565b600081359050610aa981610a83565b92915050565b60008060408385031215610ac657610ac5610a16565b5b6000610ad485828601610a64565b9250506020610ae585828601610a9a565b9150509250929050565b60008115159050919050565b610b0481610aef565b82525050565b6000602082019050610b1f6000830184610afb565b92915050565b610b2e81610a79565b82525050565b6000602082019050610b496000830184610b25565b92915050565b600080600060608486031215610b6857610b67610a16565b5b6000610b7686828701610a64565b9350506020610b8786828701610a64565b9250506040610b9886828701610a9a565b9150509250925092565b600060208284031215610bb857610bb7610a16565b5b6000610bc684828501610a64565b91505092915050565b600060ff82169050919050565b610be581610bcf565b82525050565b6000602082019050610c006000830184610bdc565b92915050565b60008060408385031215610c1d57610c1c610a16565b5b6000610c2b85828601610a64565b9250506020610c3c85828601610a64565b9150509250929050565b7f4e487b7100000000000000000000000000000000000000000000000000000000600052602260045260246000fd5b60006002820490506001821680610c8d57607f821691505b602082108103610ca057610c9f610c46565b5b50919050565b7f4e487b7100000000000000000000000000000000000000000000000000000000600052601160045260246000fd5b6000610ce082610a79565b9150610ceb83610a79565b9250828201905080821115610d0357610d02610ca6565b5b92915050565b6000610d1482610a79565b9150610d1f83610a79565b9250828203905081811115610d3757610d36610ca6565b5b9291505056fea26469706673582212209d9e048c703b29111c8852e90a72f445261574fb930758d3655a28677c41d2ad64736f6c63430008180033",
  "linkReferences": {},
  "deployedLinkReferences": {}
}